:1000000000200010430000004100000041000000FB
:1000100041000000410000004100000041000000DC
:1000200041000000410000004100000041000000CC
:1000300041000000410000004100000041000000BC
:10004000FEE70B480B490C4A091A05D013780370D8
:10005000013201300139F9DC08480949091A04D094
:100060005B40037001300139FBDC00F0BBFBFEE7B5
:10007000000000102C00001060080000300000108C
:10008000300000109008000039288CBF3738303815
:10009000C0B27047002337B501A958B9012B02BF80
:1000A00030238DF80530022301AD5C1E631C0BD19B
:1000B00003B030BD00F00F02092A94BF303237324E
:1000C0005A5400090133E8E7295D002000F0F6FAF0
:1000D000013CEBE738B505461078FFF7D5FF03463E
:1000E0005078FFF7D1FF294600EB0313DBB2033250
:1000F000481B834202F1020201DC184638BD12F8A7
:10010000020CFFF7C1FF044612F8010CFFF7BCFF19
:1001100000EB041001F8010BEAE72DE9F8434B006E
:100120000B3323F0070300AFADEB030D80460E4603
:100130006C466D46002000F0B5FA0D28A5EB0409C9
:1001400005F8010BF6D1002322463146404604F85B
:100150000930FFF7BFFFBD46BDE8F883002337B580
:1001600001A958B9012B02BF30238DF805300223B5
:1001700001AD5C1E631C0BD103B030BD00F00F025B
:10018000092A94BF303237325A5400090133E8E764
:10019000295D002000F092FA013CEBE770B50646BD
:1001A000C8B20D46FFF7DAFF3A21002000F086FAC8
:1001B0003446A31B9D4205DCBDE870400D210020A4
:1001C00000F07CBA14F8010BFFF7C8FFF1E77047A5
:1001D00070470000F0B548488FB000F009F90446B8
:1001E00050B94E2100F06AFA20464F2100F066FA1D
:1001F0004FF0FF300FB0F0BD6C21002000F05EFA30
:100200006121002000F05AFA6C21002000F056FA1B
:100210006121002000F052FA384A03AB106851689F
:1002200003AE03C3906818603121002000F046FA45
:100230003221002000F042FA012101A8FFF76DFFF2
:100240000128044655D1022000F07CF801462046E2
:1002500000F096F82146002000F092F84FF4FA7072
:1002600000F05CF80021084600F08AF84FF4FA70BC
:1002700000F054F8304600F0BBFA00240546AC42CA
:100280001CDB9DF80450FDB1012DCDD110210AA831
:10029000FFF743FF10280446C6D1002102A8FFF74C
:1002A0003CFF07460028BFD1294600F069F83946CF
:1002B000384600F065F8214606A817E0315D0020B9
:1002C00000F0FCF90134DAE710270EAC04F82D7DBC
:1002D00001212046FFF762FF012120468DF80B70B7
:1002E000FFF75CFF012120468DF80B50FFF756FF0A
:1002F0009AE700207EE700BF000000104C080000D5
:10030000054B9B785843032390FBF3F0002801DD55
:100310000138FDD1704700BF3000001001460022B7
:1003200008B58A4200DB08BD4FF47A70FFF7E8FF9A
:100330000132F6E7024B00211B689869704700BF45
:100340002800001001280CD003D3022811D000206F
:100350007047094B1A6843F6FC73D05800F001004F
:100360007047054B1A6843F6FC73D058C0F3400041
:100370007047024BF6E700BF100000100C000010A1
:10038000012811D002D3022817D070470E4B1A68EB
:1003900043F6FC7321B1D15841F00101D1507047AF
:1003A000D15821F00101F9E7074B1A6843F6FC73B5
:1003B00029B1D15841F00201F0E7044BF5E7D158DB
:1003C00021F00201EAE700BF100000100C0000104D
:1003D000024B1B68586900F0010070471C000010B8
:1003E000024B1B685869C0F3401070471C00001096
:1003F0002DE9F74F80460568A14810240368A14EF7
:10040000D3F880205FFA85FC42F48032C3F8802064
:100410009D4A3560116801228A67CA670C6140F203
:100420000124C1F8A420C1F8A8200C634C63D3F8C0
:100430008010944541F02001C3F88010D3F880105B
:10044000009041F04001C3F88010D3F8801041F4CF
:100450008051C3F88010596821F002015960596831
:1004600041F00201596005D026D3BCF1020F05D03E
:100470000024E1E062464FF0030900E091464FF0AE
:10048000000EC5F307210191C5F307450124019F23
:100490000EF1010A0AFB07F1B1FBF4FB04FB1B1090
:1004A00008B95D450AD00134B4F5807FF4D1BAF1C2
:1004B000200FD646EAD1DBE70022DCE74D009C3D69
:1004C000A42D0FD98D009C3DA42D40F2B980CD0004
:1004D0009C3DA42D40F2B68009019C39A42900F26C
:1004E000CD800320791E13294EEA401000F2AC8023
:1004F00000211962D3F83812BCF1000F40F0AA8035
:1005000041F02001C3F83812C82300BF013BFCD1E1
:10051000009B1B681A645A6C42F001025A645A6CC0
:1005200022F001025A645A6C42F001025A645A6C79
:10053000D507FCD59860D3F8382222F08002C3F8A2
:100540003822DA68D107FCD5C3F870905A6F42F0B0
:1005500001025A675A6F22F001025A675A6F42F03D
:1005600001025A675A6FD207FCD5B1789C671429EB
:1005700073D80020454A12681061454A126802F596
:100580000040046844F001040460046844F002047C
:1005900004604048006800F50040046824F002044C
:1005A000046043F6FC70145824F0010414501458ED
:1005B00024F002041450384AC3F898101368D9681C
:1005C00041F08001D96005219962996A41F080016A
:1005D00099620021596004211960D96821F08001D5
:1005E000D960D96841F00301D960D96821F00801C8
:1005F000D960D96821F00401D960FFF7E9FE00282D
:1006000037D1FFF7EDFE04460028FAD0234AB3782D
:10061000126803EB830353611361402313606FF08F
:100620007F421F4B1B685A619A6198F803201AB3E6
:1006300005221A6100F0D2F8204603B0BDE8F08F21
:1006400001204FE702204DE70F3F0A2F3FF652AF40
:1006500002214EE721F0200154E7282903D80B4A54
:100660000120126888E7322987D8084A02201268D8
:1006700082E713681B68C0E70422DAE70446DBE779
:1006800004000010300000100800001024000010CA
:10069000100000100C0000101C00001020000010C2
:1006A0002800001008B510B9FFF792FEFBE7024BD7
:1006B0001B681868C0B208BD1C00001008B510B94E
:1006C000FFF78EFEFBE7024B1B68196008BD00BFF9
:1006D0001C0000102DE9F041202541EA400C4FF0AC
:1006E0003C0E042738214FF024081820354E34687A
:1006F00025603468656805F0F805282D39D014D8D0
:10070000102D03D007D805B3082DF3D1C4F808C0C5
:100710002760A061EDE7182D1ED0202DEAD114230B
:10072000236028230220A36114E0402D2DD006D899
:10073000302D24D0382DDDD1C4F80080E9E7502DCC
:100740002AD0582D35D0482DE8E7142323602823DC
:100750000120A361BDE8F0812BB115780132A560BD
:100760002760A161C5E7142222602822A26100202F
:10077000F0E7013BF1D114222260A561F7E71423D1
:10078000236028230320A361E4E7012B8ABF2760AD
:10079000C4F818E0A161ACE7A468551C1470326875
:1007A000013B012B8ABF1760C2F818E091612A460D
:1007B0009FE70BB1A3681370142233681A602822D4
:1007C0009A61D4E72000001013460A460121FFF782
:1007D00081BF13460A460021FFF77CBF62B670470F
:1007E00072B6704740404940FFF7F4FC7047000084
:1007F00020F0030110F00300C0F1000051F8043BA9
:1008000000F1040C4FEACC0C6FF000021CBF22FA7E
:100810000CF213434FF0010C4CEA0C2C4CEA0C4C3C
:10082000A3EB0C0222EA030212EACC1204BF51F835
:10083000043B0430F4D0C2F1000102EA0102B2FA32
:1008400082F2C2F11F0200EBD200704768656C6C47
:080850006F20776F726C6400E9
:08085800000000000000000098
:10086000000C0C01008004400040044000000050D7
:1008700000000150000002500000035000800040C2
:0C0880000000004000C0034000E000E069
:00000001FF
