:1000000000200010430000004100000041000000FB
:1000100041000000410000004100000041000000DC
:1000200041000000410000004100000041000000CC
:1000300041000000410000004100000041000000BC
:10004000FEE70B480B490C4A091A05D013780370D8
:10005000013201300139F9DC08480949091A04D094
:100060005B40037001300139FBDC00F091FDFEE7DD
:10007000000000102C000010C00B00003000001029
:1000800030000010F00B00004840704710F0800F67
:100090004FEA400018BF80F01B00C0B27047024614
:1000A0000723002010B5FFF7F1FF41FA03F4E4073E
:1000B00044BF5040C0B213F1FF33F4D210BD70B54D
:1000C0000146FFF7ECFF0646FFF7E9FF314605461C
:1000D0003046FFF7E4FF014604462846FFF7DFFFFE
:1000E00005462046FFF7DBFF01462846FFF7D7FF0E
:1000F0000146FFF7D4FF0146FFF7D1FF0446014652
:100100002846FFF7CCFF01462046FFF7C8FFBDE8B1
:1001100070400146FFF7C3BF08B5FFF7D0FF80F07E
:10012000630383EAD01383EA901383EA501383EACC
:10013000101383EA400383EA800383EAC00383EA5F
:100140000010C0B208BD430983EAD01383F0050351
:1001500083EA900383EA400383EAC00383EA8010C2
:10016000C0B2FFF7ACBF2DE9F0410C46054616467C
:10017000487BFFF7D1FF227856404640F6B22E70FA
:10018000A07BFFF7C9FF637843405FFA83F885F8E7
:100190000180E07BFFF7C0FFA7784740FFB2AF7058
:1001A000207BFFF7B9FFE3785840C0B2E8702379AD
:1001B0005E402E71637988EA03036B71A279574020
:1001C000AF71E2795040E871227A56402E72627A1D
:1001D00053406B72A27A5740AF72E27A5040E87295
:1001E000227B56402E73627B53406B73A37B5F4030
:1001F000AF73E37B5840E873BDE8F08110B5431E50
:1002000001390F3013F8012F11F8014F834282EAB0
:1002100004021A70F6D110BD38B5451E00F10F0466
:1002200015F8010FFFF778FFA5422870F8D138BD07
:1002300038B5451E00F10F0415F8010FFFF76CFFEC
:10024000A5422870F8D138BD4179427A437B10B578
:10025000447842714473827A847841704372817920
:10026000837B84728173C478C17982708371C27A0E
:10027000C37BC471C172C273C37010BD2DE9F0415C
:100280000178034642788478C6780846FFF7FEFE78
:1002900080461046FFF7FAFE07462046FFF7F6FEB7
:1002A00005463046FFF7F2FE81EA020C62407240DA
:1002B0006140714088EA020286EA0C0684EA0C0476
:1002C0007A404F406F40197988EA040475404540F0
:1002D00060401A705F709D70D87008469C79DE7916
:1002E0005A79FFF7D3FE80461046FFF7CFFE074648
:1002F0002046FFF7CBFE05463046FFF7C7FE81EAF2
:10030000020C624072406140714088EA020286EA53
:100310000C0684EA0C047A404F406F40197A88EA50
:1003200004047540454060401A715F719D71D87139
:1003300008469C7ADE7A5A7AFFF7A8FE8046104675
:10034000FFF7A4FE07462046FFF7A0FE054630460D
:10035000FFF79CFE81EA020C6240724061407140EE
:1003600088EA020286EA0C0684EA0C047A404F40CE
:100370006F40197B88EA04047540454060401A725A
:100380005F729D72D87208469C7BDE7B5A7BFFF7BA
:100390007DFE80461046FFF779FE07462046FFF7B0
:1003A00075FE05463046FFF771FE81EA020C624099
:1003B00072406140714088EA02027A4086EA0C0687
:1003C0004F4084EA0C046F4088EA040475404540BD
:1003D00060401A735F739D73D873BDE8F0812DE997
:1003E000F0412D4D8CB00B4606466968286801AC7B
:1003F00003C4298908AD21802C4603F1100C0DF1AE
:1004000004082F4618685968083303C763453D46FA
:10041000F7D104AB1D4602F1100C1F46106851685D
:10042000083203C762453B46F7D129462046FFF70D
:10043000E5FE00272046FFF7FBFE2046FFF704FFFE
:10044000FFF71CFF18F8072029462846FFF78BFE08
:10045000013729462046FFF7D1FE092FEAD1204671
:10046000FFF7E6FE2046FFF7EFFE29462846362234
:10047000FFF779FE29462046FFF7C0FE33460CAD54
:10048000224603CAAA4218605960144603F10803C1
:10049000F6D10CB0BDE8F0819A0B000039288CBF72
:1004A00037383038C0B2704738B505461078FFF796
:1004B000F5FF03465078FFF7F1FF294600EB0313E1
:1004C000DBB20332481B834202F1020201DC184610
:1004D00038BD12F8020CFFF7E1FF044612F8010CD8
:1004E000FFF7DCFF00EB041001F8010BEAE72DE950
:1004F000F8434B000B3323F0070300AFADEB030DC4
:1005000080460E466C466D46002000F0A1FA0D288C
:10051000A5EB040905F8010BF6D10023224631466C
:10052000404604F80930FFF7BFFFBD46BDE8F88339
:1005300037B5002401AD78B9012C17D130238DF8DF
:1005400005300224013C295D002000F08DFA14F1F1
:10055000FF34F8D203B030BD00F00F02092A94BF77
:10056000303237322A5500090134E4E7002CE9D152
:1005700043F23003ADF80430E3E770B50646C8B285
:100580000D46FFF7D5FF3A21002000F06DFA344602
:10059000A31B9D4205DCBDE870400D21002000F04A
:1005A00063BA14F8010BFFF7C3FFF1E77047FFF7D9
:1005B00016BF00BF2DE9F0413A488EB000F0EEF8CA
:1005C00000286CD00AAA1746374B03F110051446D1
:1005D00018685968083303C4AB422246F7D1012199
:1005E0006846FFF784FF0128044609D000F1300176
:1005F000C9B2002000F038FA00200EB0BDE8F0814A
:10060000022000F075F80146204600F08FF82146E0
:10061000002000F08BF84FF4FA7000F055F800213C
:10062000084600F083F84FF4FA7000F04DF89DF89A
:100630000060F6B1012ED2D1102106A8FFF757FFB6
:1006400010280446CBD1002101A8FFF750FF054632
:100650000028C4D1314600F069F83A4606A902A83C
:10066000FFF7BDFE2946284600F060F8214602A8A3
:1006700012E04FF010080EAD05F8318D21462846E6
:10068000FFF77BFF214628468DF80780FFF775FFAF
:10069000214628468DF80760FFF76FFF9FE74FF070
:1006A000FF30AAE700000010A40B0000054B9B7868
:1006B0005843032390FBF3F0002801DD0138FDD1FE
:1006C000704700BF300000100146002208B58A4282
:1006D00000DB08BD4FF47A70FFF7E8FF0132F6E760
:1006E000024B00211B689869704700BF280000106A
:1006F00001280CD003D3022811D000207047094BE9
:100700001A6843F6FC73D05800F001007047054B9F
:100710001A6843F6FC73D058C0F340007047024B90
:10072000F6E700BF100000100C000010012811D0E7
:1007300002D3022817D070470E4B1A6843F6FC7399
:1007400021B1D15841F00101D1507047D15821F069
:100750000101F9E7074B1A6843F6FC7329B1D15838
:1007600041F00201F0E7044BF5E7D15821F0020116
:10077000EAE700BF100000100C000010024B1B68DD
:10078000586900F0010070471C000010024B1B6804
:100790005869C0F3401070471C0000102DE9F74F56
:1007A00080460568A14810240368A14ED3F8802034
:1007B0005FFA85FC42F48032C3F880209D4A3560A0
:1007C000116801228A67CA670C6140F20124C1F8EE
:1007D000A420C1F8A8200C634C63D3F88010944582
:1007E00041F02001C3F88010D3F88010009041F050
:1007F0004001C3F88010D3F8801041F48051C3F851
:100800008010596821F002015960596841F00201D5
:10081000596005D026D3BCF1020F05D00024E1E0D9
:1008200062464FF0030900E091464FF0000EC5F319
:1008300007210191C5F307450124019F0EF1010A2B
:100840000AFB07F1B1FBF4FB04FB1B1008B95D4583
:100850000AD00134B4F5807FF4D1BAF1200FD64626
:10086000EAD1DBE70022DCE74D009C3DA42D0FD947
:100870008D009C3DA42D40F2B980CD009C3DA42D5F
:1008800040F2B68009019C39A42900F2CD800320F2
:10089000791E13294EEA401000F2AC800021196243
:1008A000D3F83812BCF1000F40F0AA8041F02001CB
:1008B000C3F83812C82300BF013BFCD1009B1B6862
:1008C0001A645A6C42F001025A645A6C22F0010216
:1008D0005A645A6C42F001025A645A6CD507FCD52E
:1008E0009860D3F8382222F08002C3F83822DA6800
:1008F000D107FCD5C3F870905A6F42F001025A67D5
:100900005A6F22F001025A675A6F42F001025A6789
:100910005A6FD207FCD5B1789C67142973D8002090
:10092000454A12681061454A126802F500400468A1
:1009300044F001040460046844F002040460404888
:10094000006800F50040046824F00204046043F6E7
:10095000FC70145824F001041450145824F00204BC
:100960001450384AC3F898101368D96841F08001D0
:10097000D96005219962996A41F08001996200214C
:10098000596004211960D96821F08001D960D968C3
:1009900041F00301D960D96821F00801D960D96814
:1009A00021F00401D960FFF7E9FE002837D1FFF7F5
:1009B000EDFE04460028FAD0234AB378126803EB10
:1009C000830353611361402313606FF07F421F4B19
:1009D0001B685A619A6198F803201AB305221A61BC
:1009E00000F0D2F8204603B0BDE8F08F01204FE7B9
:1009F00002204DE70F3F0A2F3FF652AF02214EE78C
:100A000021F0200154E7282903D80B4A012012685D
:100A100088E7322987D8084A0220126882E71368DB
:100A20001B68C0E70422DAE70446DBE70400001095
:100A3000300000100800001024000010100000100A
:100A40000C0000101C0000102000001028000010F6
:100A500008B510B9FFF792FEFBE7024B1B68186858
:100A6000C0B208BD1C00001008B510B9FFF78EFE1B
:100A7000FBE7024B1B68196008BD00BF1C0000109B
:100A80002DE9F041202541EA400C4FF03C0E0427AF
:100A900038214FF024081820354E3468256034681A
:100AA000656805F0F805282D39D014D8102D03D02D
:100AB00007D805B3082DF3D1C4F808C02760A0619A
:100AC000EDE7182D1ED0202DEAD114232360282312
:100AD0000220A36114E0402D2DD006D8302D24D063
:100AE000382DDDD1C4F80080E9E7502D2AD0582DEB
:100AF00035D0482DE8E71423236028230120A36183
:100B0000BDE8F0812BB115780132A5602760A161A5
:100B1000C5E7142222602822A2610020F0E7013BF1
:100B2000F1D114222260A561F7E714232360282362
:100B30000320A361E4E7012B8ABF2760C4F818E013
:100B4000A161ACE7A468551C14703268013B012B0D
:100B50008ABF1760C2F818E091612A469FE70BB17F
:100B6000A3681370142233681A6028229A61D4E7AC
:100B70002000001013460A460121FFF781BF1346EB
:100B80000A460021FFF77CBF62B6704772B6704715
:100B900040404940FFF70EFD704701020408102055
:100BA00040801B36CD9716E95B42DD4869772A34D1
:040BB0006A7F5813ED
:0C0BB40000000000000000000000000035
:100BC000000C0C0100800440004004400000005074
:100BD000000001500000025000000350008000405F
:0C0BE0000000004000C0034000E000E006
:00000001FF
