:1000000000200010430000004100000041000000FB
:1000100041000000410000004100000041000000DC
:1000200041000000410000004100000041000000CC
:1000300041000000410000004100000041000000BC
:10004000FEE70B480B490C4A091A05D013780370D8
:10005000013201300139F9DC08480949091A04D094
:100060005B40037001300139FBDC00F06DFBFEE703
:10007000000000102C00001060070000300000108D
:10008000300000109007000039288CBF3738303816
:10009000C0B2704738B505461078FFF7F5FF034644
:1000A0005078FFF7F1FF294600EB0313DBB2033270
:1000B000481B834202F1020201DC184638BD12F8E7
:1000C000020CFFF7E1FF044612F8010CFFF7DCFF1A
:1000D00000EB041001F8010BEAE72DE9F8434B00AF
:1000E0000B3323F0070300AFADEB030D80460E4644
:1000F0006C466D46002000F087FA0D28A5EB040938
:1001000005F8010BF6D1002322463146404604F89B
:100110000930FFF7BFFFBD46BDE8F88337B50024BF
:1001200001AD78B9012C17D130238DF805300224A8
:10013000013C295D002000F073FA14F1FF34F8D27D
:1001400003B030BD00F00F02092A94BF30323732BD
:100150002A5500090134E4E7002CE9D143F23003C9
:10016000ADF80430E3E770B50646C8B20D46FFF7B8
:10017000D5FF3A21002000F053FA3446A31B9D42DC
:1001800005DCBDE870400D21002000F049BA14F8EC
:10019000010BFFF7C3FFF1E770477047F0B5304838
:1001A0008BB000F0D7F8F8B94FF0FF300BB0F0BDCE
:1001B000022000F079F80146204600F093F821462D
:1001C000002000F08FF84FF4FA7000F059F8002189
:1001D000084600F087F84FF4FA7000F051F89DF8E7
:1001E000006086B1012E23D001216846FFF775FF1C
:1001F00001280446DCD000F13001C9B2002000F033
:100200000FFA0020D2E710270AAD05F8217D21461C
:100210002846FFF7A8FF214628468DF80770FFF70C
:10022000A2FF214628468DF80760FFF79CFFDBE719
:10023000102106A8FFF751FF10280446D4D1002151
:1002400001A8FFF74AFF05460028CDD1314600F04E
:1002500049F82946284600F045F8214602A8E4E777
:1002600000000010054B9B785843032390FBF3F0EC
:10027000002801DD0138FDD1704700BF30000010BB
:100280000146002208B58A4200DB08BD4FF47A70AF
:10029000FFF7E8FF0132F6E7024B00211B6898697F
:1002A000704700BF2800001001280CD003D302289B
:1002B00011D000207047094B1A6843F6FC73D058E0
:1002C00000F001007047054B1A6843F6FC73D058E4
:1002D000C0F340007047024BF6E700BF100000106B
:1002E0000C000010012811D002D3022817D070474B
:1002F0000E4B1A6843F6FC7321B1D15841F001014D
:10030000D1507047D15821F00101F9E7074B1A6825
:1003100043F6FC7329B1D15841F00201F0E7044BD8
:10032000F5E7D15821F00201EAE700BF1000001004
:100330000C000010024B1B68586900F00100704768
:100340001C000010024B1B685869C0F34010704736
:100350001C0000102DE9F74F80460568A1481024C5
:100360000368A14ED3F880205FFA85FC42F4803206
:10037000C3F880209D4A3560116801228A67CA67E8
:100380000C6140F20124C1F8A420C1F8A8200C633C
:100390004C63D3F88010944541F02001C3F88010DD
:1003A000D3F88010009041F04001C3F88010D3F8DA
:1003B000801041F48051C3F88010596821F0020187
:1003C0005960596841F00201596005D026D3BCF14B
:1003D000020F05D00024E1E062464FF0030900E07F
:1003E00091464FF0000EC5F307210191C5F3074573
:1003F0000124019F0EF1010A0AFB07F1B1FBF4FB96
:1004000004FB1B1008B95D450AD00134B4F5807FA8
:10041000F4D1BAF1200FD646EAD1DBE70022DCE7BF
:100420004D009C3DA42D0FD98D009C3DA42D40F284
:10043000B980CD009C3DA42D40F2B68009019C39C5
:10044000A42900F2CD800320791E13294EEA401022
:1004500000F2AC8000211962D3F83812BCF1000F11
:1004600040F0AA8041F02001C3F83812C82300BF31
:10047000013BFCD1009B1B681A645A6C42F00102DC
:100480005A645A6C22F001025A645A6C42F001021A
:100490005A645A6CD507FCD59860D3F8382222F0FC
:1004A0008002C3F83822DA68D107FCD5C3F870900F
:1004B0005A6F42F001025A675A6F22F001025A67DE
:1004C0005A6F42F001025A675A6FD207FCD5B178D1
:1004D0009C67142973D80020454A12681061454A68
:1004E000126802F50040046844F0010404600468E6
:1004F00044F0020404604048006800F500400468CD
:1005000024F00204046043F6FC70145824F0010443
:100510001450145824F002041450384AC3F89810A8
:100520001368D96841F08001D96005219962996A00
:1005300041F0800199620021596004211960D96855
:1005400021F08001D960D96841F00301D960D968F0
:1005500021F00801D960D96821F00401D960FFF7C2
:10056000E9FE002837D1FFF7EDFE04460028FAD057
:10057000234AB378126803EB83035361136140236A
:1005800013606FF07F421F4B1B685A619A6198F8A5
:1005900003201AB305221A6100F0D2F8204603B0F6
:1005A000BDE8F08F01204FE702204DE70F3F0A2FF3
:1005B0003FF652AF02214EE721F0200154E72829EF
:1005C00003D80B4A0120126888E7322987D8084AE5
:1005D0000220126882E713681B68C0E70422DAE78A
:1005E0000446DBE704000010300000100800001093
:1005F00024000010100000100C0000101C0000105F
:10060000200000102800001008B510B9FFF792FE76
:10061000FBE7024B1B681868C0B208BD1C00001045
:1006200008B510B9FFF78EFEFBE7024B1B68196097
:1006300008BD00BF1C0000102DE9F041202541EA53
:10064000400C4FF03C0E042738214FF024081820AE
:10065000354E346825603468656805F0F805282D46
:1006600039D014D8102D03D007D805B3082DF3D1F5
:10067000C4F808C02760A061EDE7182D1ED0202D1A
:10068000EAD11423236028230220A36114E0402D23
:100690002DD006D8302D24D0382DDDD1C4F80080DF
:1006A000E9E7502D2AD0582D35D0482DE8E71423FE
:1006B000236028230120A361BDE8F0812BB11578C8
:1006C0000132A5602760A161C5E7142222602822BB
:1006D000A2610020F0E7013BF1D114222260A56164
:1006E000F7E71423236028230320A361E4E7012B09
:1006F0008ABF2760C4F818E0A161ACE7A468551C64
:1007000014703268013B012B8ABF1760C2F818E0F1
:1007100091612A469FE70BB1A368137014223368D6
:100720001A6028229A61D4E72000001013460A4676
:100730000121FFF781BF13460A460021FFF77CBF66
:1007400062B6704772B6704740404940FFF726FDD9
:0407500070470000EE
:0C07540000000000000000000000000099
:10076000000C0C01008004400040044000000050D8
:1007700000000150000002500000035000800040C3
:0C0780000000004000C0034000E000E06A
:00000001FF
